{
  "contractName": "AddressCallerCounter",
  "abi": [
    {
      "inputs": [],
      "stateMutability": "nonpayable",
      "type": "constructor"
    },
    {
      "anonymous": false,
      "inputs": [
        {
          "indexed": true,
          "internalType": "address",
          "name": "account",
          "type": "address"
        },
        {
          "indexed": true,
          "internalType": "uint256",
          "name": "count",
          "type": "uint256"
        }
      ],
      "name": "UserIncremented",
      "type": "event"
    },
    {
      "inputs": [],
      "name": "owner",
      "outputs": [
        {
          "internalType": "address",
          "name": "",
          "type": "address"
        }
      ],
      "stateMutability": "view",
      "type": "function"
    },
    {
      "inputs": [],
      "name": "incAddressCounter",
      "outputs": [
        {
          "internalType": "uint256",
          "name": "",
          "type": "uint256"
        }
      ],
      "stateMutability": "nonpayable",
      "type": "function"
    },
    {
      "inputs": [
        {
          "internalType": "address",
          "name": "_address",
          "type": "address"
        }
      ],
      "name": "getCountByAddress",
      "outputs": [
        {
          "internalType": "uint256",
          "name": "",
          "type": "uint256"
        }
      ],
      "stateMutability": "view",
      "type": "function"
    }
  ],
  "bytecode": "0x608060405234801561001057600080fd5b50336000806101000a81548173ffffffffffffffffffffffffffffffffffffffff021916908373ffffffffffffffffffffffffffffffffffffffff16021790555061054c806100606000396000f3fe608060405234801561001057600080fd5b50600436106100415760003560e01c80638da5cb5b14610046578063a073a8d114610064578063c932fdeb14610082575b600080fd5b61004e6100b2565b60405161005b919061034f565b60405180910390f35b61006c6100d6565b6040516100799190610383565b60405180910390f35b61009c600480360381019061009791906103cf565b610236565b6040516100a99190610383565b60405180910390f35b60008054906101000a900473ffffffffffffffffffffffffffffffffffffffff1681565b600080600160003373ffffffffffffffffffffffffffffffffffffffff1673ffffffffffffffffffffffffffffffffffffffff16815260200190815260200160002054905080806101269061042b565b91505080600160003373ffffffffffffffffffffffffffffffffffffffff1673ffffffffffffffffffffffffffffffffffffffff16815260200190815260200160002081905550600160003373ffffffffffffffffffffffffffffffffffffffff1673ffffffffffffffffffffffffffffffffffffffff168152602001908152602001600020543373ffffffffffffffffffffffffffffffffffffffff167f9bee21fa72c6487367d0e2520e9a69c90ed406ad9a129881f34301cade381cec60405160405180910390a3600160003373ffffffffffffffffffffffffffffffffffffffff1673ffffffffffffffffffffffffffffffffffffffff1681526020019081526020016000205491505090565b60008060009054906101000a900473ffffffffffffffffffffffffffffffffffffffff1673ffffffffffffffffffffffffffffffffffffffff163373ffffffffffffffffffffffffffffffffffffffff16146102c7576040517f08c379a00000000000000000000000000000000000000000000000000000000081526004016102be906104f6565b60405180910390fd5b600160008373ffffffffffffffffffffffffffffffffffffffff1673ffffffffffffffffffffffffffffffffffffffff168152602001908152602001600020549050919050565b600073ffffffffffffffffffffffffffffffffffffffff82169050919050565b60006103398261030e565b9050919050565b6103498161032e565b82525050565b60006020820190506103646000830184610340565b92915050565b6000819050919050565b61037d8161036a565b82525050565b60006020820190506103986000830184610374565b92915050565b600080fd5b6103ac8161032e565b81146103b757600080fd5b50565b6000813590506103c9816103a3565b92915050565b6000602082840312156103e5576103e461039e565b5b60006103f3848285016103ba565b91505092915050565b7f4e487b7100000000000000000000000000000000000000000000000000000000600052601160045260246000fd5b60006104368261036a565b91507fffffffffffffffffffffffffffffffffffffffffffffffffffffffffffffffff8203610468576104676103fc565b5b600182019050919050565b600082825260208201905092915050565b7f546869732066756e6374696f6e206973207265737472696374656420746f207460008201527f686520636f6e74726163742773206f776e657200000000000000000000000000602082015250565b60006104e0603383610473565b91506104eb82610484565b604082019050919050565b6000602082019050818103600083015261050f816104d3565b905091905056fea2646970667358221220428cf8b3177096a473b0c6d57f79b7c8866b643b755ffa1a39fbc85c2cf7069564736f6c63430008110033",
  "immutableReferences": {},
  "source": "// SPDX-License-Identifier: MIT\npragma solidity >=0.4.22 <0.9.0;\n\ncontract AddressCallerCounter {\n    address public owner;\n\n    mapping (address => uint) _addressCalled;\n\n    struct User {\n        address account;\n        uint count;\n    }\n\n    event UserIncremented(\n        address indexed account,\n        uint indexed count\n    );\n\n    constructor () {\n        owner = msg.sender;\n    }\n\n    modifier ownerOnly() {\n        require(\n            msg.sender == owner,\n            \"This function is restricted to the contract's owner\"\n        );\n        _;\n    }\n\n    function incAddressCounter () public returns (uint) {\n        uint counter = _addressCalled[msg.sender];\n\n        counter++;\n\n        _addressCalled[msg.sender] = counter;\n\n        emit UserIncremented(msg.sender,_addressCalled[msg.sender]);\n\n        return _addressCalled[msg.sender];\n    }\n\n    function getCountByAddress(address _address)\n    public view\n    ownerOnly\n    returns(uint)\n    {\n        return _addressCalled[_address];\n    }\n}\n",
  "sourcePath": "/home/aliaksandr/www/sc-couter/smart-contract/contracts/AddressCallerCounter.sol",
  "compiler": {
    "name": "solc",
    "version": "0.8.17+commit.8df45f5f.Emscripten.clang"
  },
  "schemaVersion": "3.4.10",
  "updatedAt": "2022-10-31T12:20:01.031Z",
  "devdoc": {
    "kind": "dev",
    "methods": {},
    "version": 1
  },
  "userdoc": {
    "kind": "user",
    "methods": {},
    "version": 1
  }
}